{
  "contractName": "Distributor",
  "abi": [
    {
      "constant": false,
      "inputs": [
        {
          "name": "newDistributor",
          "type": "address"
        }
      ],
      "name": "addDistributor",
      "outputs": [],
      "payable": false,
      "stateMutability": "nonpayable",
      "type": "function"
    },
    {
      "constant": true,
      "inputs": [],
      "name": "isDistributor",
      "outputs": [
        {
          "name": "",
          "type": "bool"
        }
      ],
      "payable": false,
      "stateMutability": "view",
      "type": "function"
    }
  ],
  "bytecode": "0x608060405234801561001057600080fd5b50610287806100206000396000f30060806040526004361061004c576000357c0100000000000000000000000000000000000000000000000000000000900463ffffffff1680630997a514146100515780637250e22414610080575b600080fd5b34801561005d57600080fd5b506100666100c3565b604051808215151515815260200191505060405180910390f35b34801561008c57600080fd5b506100c1600480360381019080803573ffffffffffffffffffffffffffffffffffffffff1690602001909291905050506100de565b005b60006100d93360006101a490919063ffffffff16565b905090565b6100f28160006101a490919063ffffffff16565b15151561018d576040517f08c379a000000000000000000000000000000000000000000000000000000000815260040180806020018281038252602d8152602001807f4469737472696275746f7220776974682074686973206164647265737320616c81526020017f726561647920657869737473210000000000000000000000000000000000000081525060400191505060405180910390fd5b6101a18160006101fd90919063ffffffff16565b50565b60008260000160008373ffffffffffffffffffffffffffffffffffffffff1673ffffffffffffffffffffffffffffffffffffffff16815260200190815260200160002060009054906101000a900460ff16905092915050565b60018260000160008373ffffffffffffffffffffffffffffffffffffffff1673ffffffffffffffffffffffffffffffffffffffff16815260200190815260200160002060006101000a81548160ff02191690831515021790555050505600a165627a7a7230582034bf27d81f069a595de93ebd6606926e9219cb099e4be6e1f0b7e53beab801710029",
  "source": "// SPDX-License-Identifier: MIT\r\npragma solidity >=0.4.21 <0.9.0;\r\n\r\nimport \"./Users.sol\";\r\n\r\n/**\r\n * @title Distributor\r\n * @dev Handles distributor functions.\r\n */\r\ncontract Distributor {\r\n    \r\n    using Users for Users.User;\r\n    Users.User private distributors;\r\n\r\n    function addDistributor(address newDistributor) public {\r\n        require(!distributors.isExistingUser(newDistributor), \"Distributor with this address already exists!\");\r\n        distributors.addUser(newDistributor);\r\n    }\r\n\r\n    function isDistributor() public view returns (bool) {\r\n    return distributors.isExistingUser(msg.sender);\r\n  }\r\n}\r\n",
  "sourcePath": "C:\\Users\\sunrise\\Desktop\\Hackathons\\blockchain-scm\\contracts\\Distributor.sol",
  "compiler": {
    "name": "solc",
    "version": "0.4.26+commit.4563c3fc.Emscripten.clang"
  },
  "schemaVersion": "3.4.7",
  "updatedAt": "2023-02-19T06:14:52.635Z",
  "devdoc": {
    "methods": {},
    "title": "Distributor\r"
  },
  "userdoc": {
    "methods": {}
  }
}