{
  "contractName": "Retailer",
  "abi": [
    {
      "constant": false,
      "inputs": [
        {
          "name": "newRetailer",
          "type": "address"
        }
      ],
      "name": "addRetailer",
      "outputs": [],
      "payable": false,
      "stateMutability": "nonpayable",
      "type": "function"
    },
    {
      "constant": true,
      "inputs": [],
      "name": "isRetailer",
      "outputs": [
        {
          "name": "",
          "type": "bool"
        }
      ],
      "payable": false,
      "stateMutability": "view",
      "type": "function"
    }
  ],
  "bytecode": "0x608060405234801561001057600080fd5b50610287806100206000396000f30060806040526004361061004c576000357c0100000000000000000000000000000000000000000000000000000000900463ffffffff168063477ba645146100515780638ec4f50514610080575b600080fd5b34801561005d57600080fd5b506100666100c3565b604051808215151515815260200191505060405180910390f35b34801561008c57600080fd5b506100c1600480360381019080803573ffffffffffffffffffffffffffffffffffffffff1690602001909291905050506100de565b005b60006100d93360006101a490919063ffffffff16565b905090565b6100f28160006101a490919063ffffffff16565b15151561018d576040517f08c379a000000000000000000000000000000000000000000000000000000000815260040180806020018281038252602a8152602001807f52657461696c657220776974682074686973206164647265737320616c72656181526020017f647920657869737473210000000000000000000000000000000000000000000081525060400191505060405180910390fd5b6101a18160006101fd90919063ffffffff16565b50565b60008260000160008373ffffffffffffffffffffffffffffffffffffffff1673ffffffffffffffffffffffffffffffffffffffff16815260200190815260200160002060009054906101000a900460ff16905092915050565b60018260000160008373ffffffffffffffffffffffffffffffffffffffff1673ffffffffffffffffffffffffffffffffffffffff16815260200190815260200160002060006101000a81548160ff02191690831515021790555050505600a165627a7a72305820206dde81ba12728ce7bd8f63cab99e52835aae7c47d318e5d61d445e164b99a00029",
  "source": "// SPDX-License-Identifier: MIT\r\npragma solidity >=0.4.21 <0.9.0;\r\n\r\nimport \"./Users.sol\";\r\n\r\n/**\r\n * @title Retailer\r\n * @dev Handles retailer functions.\r\n */\r\ncontract Retailer {\r\n   \r\n   using Users for Users.User;\r\n\r\n   Users.User private retailers;\r\n\r\n  function addRetailer(address newRetailer) public {\r\n    require(!retailers.isExistingUser(newRetailer), \"Retailer with this address already exists!\");\r\n    retailers.addUser(newRetailer);\r\n  }\r\n\r\n  function isRetailer() public view returns (bool) {\r\n    return retailers.isExistingUser(msg.sender);\r\n  }\r\n}\r\n",
  "sourcePath": "C:\\Users\\sunrise\\Desktop\\Hackathons\\blockchain-scm\\contracts\\Retailer.sol",
  "compiler": {
    "name": "solc",
    "version": "0.4.26+commit.4563c3fc.Emscripten.clang"
  },
  "schemaVersion": "3.4.7",
  "updatedAt": "2023-02-19T06:14:52.645Z",
  "devdoc": {
    "methods": {},
    "title": "Retailer\r"
  },
  "userdoc": {
    "methods": {}
  }
}