{
  "contractName": "SupplyChainLifecycle",
  "abi": [
    {
      "constant": true,
      "inputs": [],
      "name": "isDistributor",
      "outputs": [
        {
          "name": "",
          "type": "bool"
        }
      ],
      "payable": false,
      "stateMutability": "view",
      "type": "function"
    },
    {
      "constant": true,
      "inputs": [],
      "name": "isRetailer",
      "outputs": [
        {
          "name": "",
          "type": "bool"
        }
      ],
      "payable": false,
      "stateMutability": "view",
      "type": "function"
    },
    {
      "constant": true,
      "inputs": [],
      "name": "isProducer",
      "outputs": [
        {
          "name": "",
          "type": "bool"
        }
      ],
      "payable": false,
      "stateMutability": "view",
      "type": "function"
    },
    {
      "constant": false,
      "inputs": [
        {
          "name": "newDistributor",
          "type": "address"
        }
      ],
      "name": "addDistributor",
      "outputs": [],
      "payable": false,
      "stateMutability": "nonpayable",
      "type": "function"
    },
    {
      "constant": true,
      "inputs": [
        {
          "name": "",
          "type": "uint256"
        }
      ],
      "name": "products",
      "outputs": [
        {
          "name": "productStatus",
          "type": "uint8"
        },
        {
          "name": "currentStatusUser",
          "type": "address"
        },
        {
          "name": "productId",
          "type": "uint256"
        },
        {
          "name": "productName",
          "type": "string"
        },
        {
          "name": "productDesc",
          "type": "string"
        },
        {
          "name": "productPrice",
          "type": "uint256"
        },
        {
          "name": "productQuantity",
          "type": "uint256"
        },
        {
          "name": "producerAddress",
          "type": "address"
        },
        {
          "name": "distributorAddress",
          "type": "address"
        },
        {
          "name": "retailerAddresses",
          "type": "address"
        },
        {
          "name": "consumerAddress",
          "type": "address"
        }
      ],
      "payable": false,
      "stateMutability": "view",
      "type": "function"
    },
    {
      "constant": false,
      "inputs": [
        {
          "name": "newRetailer",
          "type": "address"
        }
      ],
      "name": "addRetailer",
      "outputs": [],
      "payable": false,
      "stateMutability": "nonpayable",
      "type": "function"
    },
    {
      "constant": false,
      "inputs": [
        {
          "name": "newProducer",
          "type": "address"
        }
      ],
      "name": "addProducer",
      "outputs": [],
      "payable": false,
      "stateMutability": "nonpayable",
      "type": "function"
    },
    {
      "inputs": [],
      "payable": true,
      "stateMutability": "payable",
      "type": "constructor"
    },
    {
      "anonymous": false,
      "inputs": [
        {
          "indexed": false,
          "name": "productID",
          "type": "uint256"
        }
      ],
      "name": "Produced",
      "type": "event"
    },
    {
      "anonymous": false,
      "inputs": [
        {
          "indexed": false,
          "name": "productID",
          "type": "uint256"
        }
      ],
      "name": "ReadyForPickup",
      "type": "event"
    },
    {
      "anonymous": false,
      "inputs": [
        {
          "indexed": false,
          "name": "productID",
          "type": "uint256"
        }
      ],
      "name": "PickedUp",
      "type": "event"
    },
    {
      "anonymous": false,
      "inputs": [
        {
          "indexed": false,
          "name": "productID",
          "type": "uint256"
        }
      ],
      "name": "ShipmentReleased",
      "type": "event"
    },
    {
      "anonymous": false,
      "inputs": [
        {
          "indexed": false,
          "name": "productID",
          "type": "uint256"
        }
      ],
      "name": "ShipmentReceived",
      "type": "event"
    },
    {
      "anonymous": false,
      "inputs": [
        {
          "indexed": false,
          "name": "productID",
          "type": "uint256"
        }
      ],
      "name": "ReadyForSale",
      "type": "event"
    },
    {
      "anonymous": false,
      "inputs": [
        {
          "indexed": false,
          "name": "productID",
          "type": "uint256"
        }
      ],
      "name": "Paid",
      "type": "event"
    },
    {
      "anonymous": false,
      "inputs": [
        {
          "indexed": false,
          "name": "productID",
          "type": "uint256"
        }
      ],
      "name": "Sold",
      "type": "event"
    },
    {
      "constant": false,
      "inputs": [
        {
          "name": "prodName",
          "type": "string"
        },
        {
          "name": "prodDesc",
          "type": "string"
        },
        {
          "name": "prodPrice",
          "type": "uint256"
        },
        {
          "name": "prodQty",
          "type": "uint256"
        },
        {
          "name": "producerAdd",
          "type": "address"
        }
      ],
      "name": "produceProduct",
      "outputs": [],
      "payable": false,
      "stateMutability": "nonpayable",
      "type": "function"
    },
    {
      "constant": false,
      "inputs": [
        {
          "name": "prodId",
          "type": "uint256"
        }
      ],
      "name": "markProductReadyForPickup",
      "outputs": [],
      "payable": false,
      "stateMutability": "nonpayable",
      "type": "function"
    },
    {
      "constant": false,
      "inputs": [
        {
          "name": "prodId",
          "type": "uint256"
        }
      ],
      "name": "pickUpProduct",
      "outputs": [],
      "payable": false,
      "stateMutability": "nonpayable",
      "type": "function"
    },
    {
      "constant": false,
      "inputs": [
        {
          "name": "prodId",
          "type": "uint256"
        }
      ],
      "name": "buyProduct",
      "outputs": [],
      "payable": true,
      "stateMutability": "payable",
      "type": "function"
    },
    {
      "constant": false,
      "inputs": [
        {
          "name": "prodId",
          "type": "uint256"
        }
      ],
      "name": "releaseProductShipment",
      "outputs": [],
      "payable": false,
      "stateMutability": "nonpayable",
      "type": "function"
    },
    {
      "constant": false,
      "inputs": [
        {
          "name": "prodId",
          "type": "uint256"
        }
      ],
      "name": "receiveProductShipment",
      "outputs": [],
      "payable": false,
      "stateMutability": "nonpayable",
      "type": "function"
    },
    {
      "constant": false,
      "inputs": [
        {
          "name": "prodId",
          "type": "uint256"
        }
      ],
      "name": "markProductReadyForSale",
      "outputs": [],
      "payable": false,
      "stateMutability": "nonpayable",
      "type": "function"
    },
    {
      "constant": false,
      "inputs": [
        {
          "name": "prodId",
          "type": "uint256"
        }
      ],
      "name": "sellProductToConsumer",
      "outputs": [],
      "payable": true,
      "stateMutability": "payable",
      "type": "function"
    },
    {
      "constant": true,
      "inputs": [
        {
          "name": "prodId",
          "type": "uint256"
        }
      ],
      "name": "getProductDetails",
      "outputs": [
        {
          "components": [
            {
              "name": "productStatus",
              "type": "uint8"
            },
            {
              "name": "currentStatusUser",
              "type": "address"
            },
            {
              "name": "productId",
              "type": "uint256"
            },
            {
              "name": "productName",
              "type": "string"
            },
            {
              "name": "productDesc",
              "type": "string"
            },
            {
              "name": "productPrice",
              "type": "uint256"
            },
            {
              "name": "productQuantity",
              "type": "uint256"
            },
            {
              "name": "producerAddress",
              "type": "address"
            },
            {
              "name": "distributorAddress",
              "type": "address"
            },
            {
              "name": "retailerAddresses",
              "type": "address"
            },
            {
              "name": "consumerAddress",
              "type": "address"
            }
          ],
          "name": "",
          "type": "tuple"
        }
      ],
      "payable": false,
      "stateMutability": "view",
      "type": "function"
    },
    {
      "constant": true,
      "inputs": [],
      "name": "getAllProductDetails",
      "outputs": [
        {
          "components": [
            {
              "name": "productStatus",
              "type": "uint8"
            },
            {
              "name": "currentStatusUser",
              "type": "address"
            },
            {
              "name": "productId",
              "type": "uint256"
            },
            {
              "name": "productName",
              "type": "string"
            },
            {
              "name": "productDesc",
              "type": "string"
            },
            {
              "name": "productPrice",
              "type": "uint256"
            },
            {
              "name": "productQuantity",
              "type": "uint256"
            },
            {
              "name": "producerAddress",
              "type": "address"
            },
            {
              "name": "distributorAddress",
              "type": "address"
            },
            {
              "name": "retailerAddresses",
              "type": "address"
            },
            {
              "name": "consumerAddress",
              "type": "address"
            }
          ],
          "name": "",
          "type": "tuple[]"
        }
      ],
      "payable": false,
      "stateMutability": "view",
      "type": "function"
    }
  ],
  "bytecode": "0x608060405260006003819055506127438061001b6000396000f3006080604052600436106100f1576000357c0100000000000000000000000000000000000000000000000000000000900463ffffffff1680630997a514146100f65780632f2a68d61461012157806344253a281461014a578063477ba645146101735780635aed9c221461019e5780635f515a3a146101c95780636813b53b146101f45780637250e224146102315780637acc0b201461025a5780638642269e146102a15780638ec4f505146102bd578063a395b026146102e6578063a9a59f3214610302578063b72c946e1461032b578063d77bc92014610354578063ddf801661461037d578063ee43ec40146103a6575b600080fd5b34801561010257600080fd5b5061010b6103cf565b60405161011891906123b4565b60405180910390f35b34801561012d57600080fd5b5061014860048036036101439190810190611e84565b6103ea565b005b34801561015657600080fd5b50610171600480360361016c9190810190611ddd565b61050e565b005b34801561017f57600080fd5b5061018861088b565b60405161019591906123b4565b60405180910390f35b3480156101aa57600080fd5b506101b36108a6565b6040516101c09190612392565b60405180910390f35b3480156101d557600080fd5b506101de610c44565b6040516101eb91906123b4565b60405180910390f35b34801561020057600080fd5b5061021b60048036036102169190810190611e84565b610c5f565b6040516102289190612568565b60405180910390f35b34801561023d57600080fd5b5061025860048036036102539190810190611db4565b610fd5565b005b34801561026657600080fd5b50610281600480360361027c9190810190611e84565b611042565b6040516102989b9a999897969594939291906123cf565b60405180910390f35b6102bb60048036036102b69190810190611e84565b611288565b005b3480156102c957600080fd5b506102e460048036036102df9190810190611db4565b6113bb565b005b61030060048036036102fb9190810190611e84565b611428565b005b34801561030e57600080fd5b5061032960048036036103249190810190611e84565b61154c565b005b34801561033757600080fd5b50610352600480360361034d9190810190611e84565b6116cf565b005b34801561036057600080fd5b5061037b60048036036103769190810190611e84565b6117f3565b005b34801561038957600080fd5b506103a4600480360361039f9190810190611db4565b611975565b005b3480156103b257600080fd5b506103cd60048036036103c89190810190611e84565b6119e2565b005b60006103e5336002611b0690919063ffffffff16565b905090565b6103f2610c44565b1515610433576040517f08c379a000000000000000000000000000000000000000000000000000000000815260040161042a906124c8565b60405180910390fd5b600160048281548110151561044457fe5b90600052602060002090600a020160000160006101000a81548160ff0219169083600781111561047057fe5b02179055503360048281548110151561048557fe5b90600052602060002090600a020160000160016101000a81548173ffffffffffffffffffffffffffffffffffffffff021916908373ffffffffffffffffffffffffffffffffffffffff1602179055507ffa5cddf457a1228b4407a93573223bbd9eb1bd17b01ea96d5c3ef190354a73a681604051610503919061258a565b60405180910390a150565b610516610c44565b1515610557576040517f08c379a000000000000000000000000000000000000000000000000000000000815260040161054e906124c8565b60405180910390fd5b6004610160604051908101604052806000600781111561057357fe5b81526020018373ffffffffffffffffffffffffffffffffffffffff16815260200160035481526020018781526020018681526020018581526020018481526020018373ffffffffffffffffffffffffffffffffffffffff168152602001600073ffffffffffffffffffffffffffffffffffffffff168152602001600073ffffffffffffffffffffffffffffffffffffffff168152602001600073ffffffffffffffffffffffffffffffffffffffff168152509080600181540180825580915050906001820390600052602060002090600a02016000909192909190915060008201518160000160006101000a81548160ff0219169083600781111561067457fe5b021790555060208201518160000160016101000a81548173ffffffffffffffffffffffffffffffffffffffff021916908373ffffffffffffffffffffffffffffffffffffffff1602179055506040820151816001015560608201518160020190805190602001906106e6929190611bbd565b506080820151816003019080519060200190610703929190611bbd565b5060a0820151816004015560c0820151816005015560e08201518160060160006101000a81548173ffffffffffffffffffffffffffffffffffffffff021916908373ffffffffffffffffffffffffffffffffffffffff1602179055506101008201518160070160006101000a81548173ffffffffffffffffffffffffffffffffffffffff021916908373ffffffffffffffffffffffffffffffffffffffff1602179055506101208201518160080160006101000a81548173ffffffffffffffffffffffffffffffffffffffff021916908373ffffffffffffffffffffffffffffffffffffffff1602179055506101408201518160090160006101000a81548173ffffffffffffffffffffffffffffffffffffffff021916908373ffffffffffffffffffffffffffffffffffffffff16021790555050505060016003600082825401925050819055507f9d1715437821cd9a90cba5d1a68995c308d9ad9afc754ed9a1cff429760796e660035460405161087c919061258a565b60405180910390a15050505050565b60006108a1336001611b0690919063ffffffff16565b905090565b60606004805480602002602001604051908101604052809291908181526020016000905b82821015610c3b57838290600052602060002090600a020161016060405190810160405290816000820160009054906101000a900460ff16600781111561090d57fe5b600781111561091857fe5b81526020016000820160019054906101000a900473ffffffffffffffffffffffffffffffffffffffff1673ffffffffffffffffffffffffffffffffffffffff1673ffffffffffffffffffffffffffffffffffffffff16815260200160018201548152602001600282018054600181600116156101000203166002900480601f016020809104026020016040519081016040528092919081815260200182805460018160011615610100020316600290048015610a155780601f106109ea57610100808354040283529160200191610a15565b820191906000526020600020905b8154815290600101906020018083116109f857829003601f168201915b50505050508152602001600382018054600181600116156101000203166002900480601f016020809104026020016040519081016040528092919081815260200182805460018160011615610100020316600290048015610ab75780601f10610a8c57610100808354040283529160200191610ab7565b820191906000526020600020905b815481529060010190602001808311610a9a57829003601f168201915b5050505050815260200160048201548152602001600582015481526020016006820160009054906101000a900473ffffffffffffffffffffffffffffffffffffffff1673ffffffffffffffffffffffffffffffffffffffff1673ffffffffffffffffffffffffffffffffffffffff1681526020016007820160009054906101000a900473ffffffffffffffffffffffffffffffffffffffff1673ffffffffffffffffffffffffffffffffffffffff1673ffffffffffffffffffffffffffffffffffffffff1681526020016008820160009054906101000a900473ffffffffffffffffffffffffffffffffffffffff1673ffffffffffffffffffffffffffffffffffffffff1673ffffffffffffffffffffffffffffffffffffffff1681526020016009820160009054906101000a900473ffffffffffffffffffffffffffffffffffffffff1673ffffffffffffffffffffffffffffffffffffffff1673ffffffffffffffffffffffffffffffffffffffff1681525050815260200190600101906108ca565b50505050905090565b6000610c5a336000611b0690919063ffffffff16565b905090565b610c67611c3d565b600482815481101515610c7657fe5b90600052602060002090600a020161016060405190810160405290816000820160009054906101000a900460ff166007811115610caf57fe5b6007811115610cba57fe5b81526020016000820160019054906101000a900473ffffffffffffffffffffffffffffffffffffffff1673ffffffffffffffffffffffffffffffffffffffff1673ffffffffffffffffffffffffffffffffffffffff16815260200160018201548152602001600282018054600181600116156101000203166002900480601f016020809104026020016040519081016040528092919081815260200182805460018160011615610100020316600290048015610db75780601f10610d8c57610100808354040283529160200191610db7565b820191906000526020600020905b815481529060010190602001808311610d9a57829003601f168201915b50505050508152602001600382018054600181600116156101000203166002900480601f016020809104026020016040519081016040528092919081815260200182805460018160011615610100020316600290048015610e595780601f10610e2e57610100808354040283529160200191610e59565b820191906000526020600020905b815481529060010190602001808311610e3c57829003601f168201915b5050505050815260200160048201548152602001600582015481526020016006820160009054906101000a900473ffffffffffffffffffffffffffffffffffffffff1673ffffffffffffffffffffffffffffffffffffffff1673ffffffffffffffffffffffffffffffffffffffff1681526020016007820160009054906101000a900473ffffffffffffffffffffffffffffffffffffffff1673ffffffffffffffffffffffffffffffffffffffff1673ffffffffffffffffffffffffffffffffffffffff1681526020016008820160009054906101000a900473ffffffffffffffffffffffffffffffffffffffff1673ffffffffffffffffffffffffffffffffffffffff1673ffffffffffffffffffffffffffffffffffffffff1681526020016009820160009054906101000a900473ffffffffffffffffffffffffffffffffffffffff1673ffffffffffffffffffffffffffffffffffffffff1673ffffffffffffffffffffffffffffffffffffffff16815250509050919050565b610fe9816002611b0690919063ffffffff16565b15151561102b576040517f08c379a000000000000000000000000000000000000000000000000000000000815260040161102290612548565b60405180910390fd5b61103f816002611b5f90919063ffffffff16565b50565b60048181548110151561105157fe5b90600052602060002090600a02016000915090508060000160009054906101000a900460ff16908060000160019054906101000a900473ffffffffffffffffffffffffffffffffffffffff1690806001015490806002018054600181600116156101000203166002900480601f01602080910402602001604051908101604052809291908181526020018280546001816001161561010002031660029004801561113c5780601f106111115761010080835404028352916020019161113c565b820191906000526020600020905b81548152906001019060200180831161111f57829003601f168201915b505050505090806003018054600181600116156101000203166002900480601f0160208091040260200160405190810160405280929190818152602001828054600181600116156101000203166002900480156111da5780601f106111af576101008083540402835291602001916111da565b820191906000526020600020905b8154815290600101906020018083116111bd57829003601f168201915b5050505050908060040154908060050154908060060160009054906101000a900473ffffffffffffffffffffffffffffffffffffffff16908060070160009054906101000a900473ffffffffffffffffffffffffffffffffffffffff16908060080160009054906101000a900473ffffffffffffffffffffffffffffffffffffffff16908060090160009054906101000a900473ffffffffffffffffffffffffffffffffffffffff1690508b565b61129061088b565b8061129f575061129e6103cf565b5b15156112e0576040517f08c379a00000000000000000000000000000000000000000000000000000000081526004016112d790612528565b60405180910390fd5b60066004828154811015156112f157fe5b90600052602060002090600a020160000160006101000a81548160ff0219169083600781111561131d57fe5b02179055503360048281548110151561133257fe5b90600052602060002090600a020160000160016101000a81548173ffffffffffffffffffffffffffffffffffffffff021916908373ffffffffffffffffffffffffffffffffffffffff1602179055507f581d416ae9dff30c9305c2b35cb09ed5991897ab97804db29ccf92678e953160816040516113b0919061258a565b60405180910390a150565b6113cf816001611b0690919063ffffffff16565b151515611411576040517f08c379a0000000000000000000000000000000000000000000000000000000008152600401611408906124e8565b60405180910390fd5b611425816001611b5f90919063ffffffff16565b50565b61143061088b565b1515611471576040517f08c379a000000000000000000000000000000000000000000000000000000000815260040161146890612508565b60405180910390fd5b600760048281548110151561148257fe5b90600052602060002090600a020160000160006101000a81548160ff021916908360078111156114ae57fe5b0217905550336004828154811015156114c357fe5b90600052602060002090600a020160000160016101000a81548173ffffffffffffffffffffffffffffffffffffffff021916908373ffffffffffffffffffffffffffffffffffffffff1602179055507f92f64ca637d023f354075a4be751b169c1a8a9ccb6d33cdd0cb352054399572781604051611541919061258a565b60405180910390a150565b6115546103cf565b1515611595576040517f08c379a000000000000000000000000000000000000000000000000000000000815260040161158c906124a8565b60405180910390fd5b60026004828154811015156115a657fe5b90600052602060002090600a020160000160006101000a81548160ff021916908360078111156115d257fe5b0217905550336004828154811015156115e757fe5b90600052602060002090600a020160000160016101000a81548173ffffffffffffffffffffffffffffffffffffffff021916908373ffffffffffffffffffffffffffffffffffffffff1602179055503360048281548110151561164657fe5b90600052602060002090600a020160070160006101000a81548173ffffffffffffffffffffffffffffffffffffffff021916908373ffffffffffffffffffffffffffffffffffffffff1602179055507f083ec4064b35087af011df34f3d207f4f7f619945bf47aac7151dc1bb26cbcec816040516116c4919061258a565b60405180910390a150565b6116d76103cf565b1515611718576040517f08c379a000000000000000000000000000000000000000000000000000000000815260040161170f906124a8565b60405180910390fd5b600360048281548110151561172957fe5b90600052602060002090600a020160000160006101000a81548160ff0219169083600781111561175557fe5b02179055503360048281548110151561176a57fe5b90600052602060002090600a020160000160016101000a81548173ffffffffffffffffffffffffffffffffffffffff021916908373ffffffffffffffffffffffffffffffffffffffff1602179055507f4f99376b0086484778324ace67e411e492882179dfdae93d3d8ea2b06927959e816040516117e8919061258a565b60405180910390a150565b6117fb61088b565b151561183c576040517f08c379a000000000000000000000000000000000000000000000000000000000815260040161183390612508565b60405180910390fd5b6004808281548110151561184c57fe5b90600052602060002090600a020160000160006101000a81548160ff0219169083600781111561187857fe5b02179055503360048281548110151561188d57fe5b90600052602060002090600a020160000160016101000a81548173ffffffffffffffffffffffffffffffffffffffff021916908373ffffffffffffffffffffffffffffffffffffffff160217905550336004828154811015156118ec57fe5b90600052602060002090600a020160080160006101000a81548173ffffffffffffffffffffffffffffffffffffffff021916908373ffffffffffffffffffffffffffffffffffffffff1602179055507f55c3a0d97ff0acf6fa17a844804c6f84d628e88c572c81125dbc048c0f64ec3b8160405161196a919061258a565b60405180910390a150565b611989816000611b0690919063ffffffff16565b1515156119cb576040517f08c379a00000000000000000000000000000000000000000000000000000000081526004016119c290612488565b60405180910390fd5b6119df816000611b5f90919063ffffffff16565b50565b6119ea61088b565b1515611a2b576040517f08c379a0000000000000000000000000000000000000000000000000000000008152600401611a2290612508565b60405180910390fd5b6005600482815481101515611a3c57fe5b90600052602060002090600a020160000160006101000a81548160ff02191690836007811115611a6857fe5b021790555033600482815481101515611a7d57fe5b90600052602060002090600a020160000160016101000a81548173ffffffffffffffffffffffffffffffffffffffff021916908373ffffffffffffffffffffffffffffffffffffffff1602179055507f3a554daf1050288bc56a3cf986e9e6f852ea8b48812472d47d16415cf58d6e1c81604051611afb919061258a565b60405180910390a150565b60008260000160008373ffffffffffffffffffffffffffffffffffffffff1673ffffffffffffffffffffffffffffffffffffffff16815260200190815260200160002060009054906101000a900460ff16905092915050565b60018260000160008373ffffffffffffffffffffffffffffffffffffffff1673ffffffffffffffffffffffffffffffffffffffff16815260200190815260200160002060006101000a81548160ff0219169083151502179055505050565b828054600181600116156101000203166002900490600052602060002090601f016020900481019282601f10611bfe57805160ff1916838001178555611c2c565b82800160010185558215611c2c579182015b82811115611c2b578251825591602001919060010190611c10565b5b509050611c399190611d11565b5090565b6101606040519081016040528060006007811115611c5757fe5b8152602001600073ffffffffffffffffffffffffffffffffffffffff1681526020016000815260200160608152602001606081526020016000815260200160008152602001600073ffffffffffffffffffffffffffffffffffffffff168152602001600073ffffffffffffffffffffffffffffffffffffffff168152602001600073ffffffffffffffffffffffffffffffffffffffff168152602001600073ffffffffffffffffffffffffffffffffffffffff1681525090565b611d3391905b80821115611d2f576000816000905550600101611d17565b5090565b90565b6000611d42823561267a565b905092915050565b600082601f8301121515611d5d57600080fd5b8135611d70611d6b826125d2565b6125a5565b91508082526020830160208301858383011115611d8c57600080fd5b611d978382846126b6565b50505092915050565b6000611dac823561269a565b905092915050565b600060208284031215611dc657600080fd5b6000611dd484828501611d36565b91505092915050565b600080600080600060a08688031215611df557600080fd5b600086013567ffffffffffffffff811115611e0f57600080fd5b611e1b88828901611d4a565b955050602086013567ffffffffffffffff811115611e3857600080fd5b611e4488828901611d4a565b9450506040611e5588828901611da0565b9350506060611e6688828901611da0565b9250506080611e7788828901611d36565b9150509295509295909350565b600060208284031215611e9657600080fd5b6000611ea484828501611da0565b91505092915050565b611eb68161262e565b82525050565b6000611ec78261260b565b80845260208401935083602082028501611ee0856125fe565b60005b84811015611f19578383038852611efb83835161228d565b9250611f0682612621565b9150602088019750600181019050611ee3565b508196508694505050505092915050565b611f338161264e565b82525050565b611f42816126a4565b82525050565b6000611f5382612616565b808452611f678160208601602086016126c5565b611f70816126f8565b602085010191505092915050565b6000602a82527f50726f647563657220776974682074686973206164647265737320616c72656160208301527f64792065786973747321000000000000000000000000000000000000000000006040830152606082019050919050565b6000601282527f4e6f742061206469737472696275746f722e00000000000000000000000000006020830152604082019050919050565b6000600f82527f4e6f7420612070726f64756365722e00000000000000000000000000000000006020830152604082019050919050565b6000602a82527f52657461696c657220776974682074686973206164647265737320616c72656160208301527f64792065786973747321000000000000000000000000000000000000000000006040830152606082019050919050565b6000600f82527f4e6f7420612072657461696c65722e00000000000000000000000000000000006020830152604082019050919050565b6000602582527f4e65697468657220612072657461696c6572206e6f722061206469737472696260208301527f75746f722e0000000000000000000000000000000000000000000000000000006040830152606082019050919050565b6000602d82527f4469737472696275746f7220776974682074686973206164647265737320616c60208301527f72656164792065786973747321000000000000000000000000000000000000006040830152606082019050919050565b6000610160830160008301516121b06000860182611f39565b5060208301516121c36020860182611ead565b5060408301516121d66040860182612383565b50606083015184820360608601526121ee8282611f48565b915050608083015184820360808601526122088282611f48565b91505060a083015161221d60a0860182612383565b5060c083015161223060c0860182612383565b5060e083015161224360e0860182611ead565b50610100830151612258610100860182611ead565b5061012083015161226d610120860182611ead565b50610140830151612282610140860182611ead565b508091505092915050565b6000610160830160008301516122a66000860182611f39565b5060208301516122b96020860182611ead565b5060408301516122cc6040860182612383565b50606083015184820360608601526122e48282611f48565b915050608083015184820360808601526122fe8282611f48565b91505060a083015161231360a0860182612383565b5060c083015161232660c0860182612383565b5060e083015161233960e0860182611ead565b5061010083015161234e610100860182611ead565b50610120830151612363610120860182611ead565b50610140830151612378610140860182611ead565b508091505092915050565b61238c81612670565b82525050565b600060208201905081810360008301526123ac8184611ebc565b905092915050565b60006020820190506123c96000830184611f2a565b92915050565b6000610160820190506123e5600083018e611f39565b6123f2602083018d611ead565b6123ff604083018c612383565b8181036060830152612411818b611f48565b90508181036080830152612425818a611f48565b905061243460a0830189612383565b61244160c0830188612383565b61244e60e0830187611ead565b61245c610100830186611ead565b61246a610120830185611ead565b612478610140830184611ead565b9c9b505050505050505050505050565b600060208201905081810360008301526124a181611f7e565b9050919050565b600060208201905081810360008301526124c181611fdb565b9050919050565b600060208201905081810360008301526124e181612012565b9050919050565b6000602082019050818103600083015261250181612049565b9050919050565b60006020820190508181036000830152612521816120a6565b9050919050565b60006020820190508181036000830152612541816120dd565b9050919050565b600060208201905081810360008301526125618161213a565b9050919050565b600060208201905081810360008301526125828184612197565b905092915050565b600060208201905061259f6000830184612383565b92915050565b6000604051905081810181811067ffffffffffffffff821117156125c857600080fd5b8060405250919050565b600067ffffffffffffffff8211156125e957600080fd5b601f19601f8301169050602081019050919050565b6000602082019050919050565b600081519050919050565b600081519050919050565b6000602082019050919050565b600073ffffffffffffffffffffffffffffffffffffffff82169050919050565b60008115159050919050565b600060088210151561266857fe5b819050919050565b6000819050919050565b600073ffffffffffffffffffffffffffffffffffffffff82169050919050565b6000819050919050565b60006126af8261265a565b9050919050565b82818337600083830152505050565b60005b838110156126e35780820151818401526020810190506126c8565b838111156126f2576000848401525b50505050565b6000601f19601f83011690509190505600a265627a7a72305820467971f0595fd24ff0ac208e4c634f2952eb2dd270fda77a659d46893707b94a6c6578706572696d656e74616cf50037",
  "source": "// SPDX-License-Identifier: GPL-3.0\r\npragma solidity >=0.4.21 <0.9.0;\r\npragma experimental ABIEncoderV2;\r\n\r\nimport \"./Producer.sol\";\r\nimport \"./Retailer.sol\";\r\nimport \"./Distributor.sol\";\r\n\r\n/**\r\n * @title SupplyChainLifecycle\r\n * @dev Deals with product life cycle statuses for all the parties involved.\r\n */\r\ncontract SupplyChainLifecycle is Producer, Retailer, Distributor {\r\n\r\n    enum Status { \r\n        PRODUCED, \r\n        READY_FOR_PICKUP, \r\n        PICKED_UP, \r\n        SHIPMENT_RELEASED, \r\n        RECEIVED_SHIPMENT, \r\n        READY_FOR_SALE, \r\n        PAID,\r\n        SOLD \r\n    }\r\n\r\n    //Define the product of this supply chain.\r\n    struct Product {\r\n        Status productStatus;\r\n        address currentStatusUser;\r\n        uint productId;\r\n        string productName;\r\n        string productDesc;\r\n        uint productPrice;\r\n        uint productQuantity;\r\n        address producerAddress;\r\n        address distributorAddress;\r\n        address retailerAddresses;\r\n        address consumerAddress;\r\n    }\r\n\r\n    Status constant initialStatus = Status.PRODUCED;\r\n    uint productID;\r\n\r\n    Product[] public products;\r\n\r\n    //Define events to emit based on statuses, linked by the product ID.\r\n    event Produced(uint productID);\r\n    event ReadyForPickup(uint productID);\r\n    event PickedUp(uint productID);\r\n    event ShipmentReleased(uint productID);\r\n    event ShipmentReceived(uint productID);\r\n    event ReadyForSale(uint productID);\r\n    event Paid(uint productID);\r\n    event Sold(uint productID);\r\n\r\n   constructor() public payable {\r\n       productID = 0;\r\n   }\r\n\r\n   /*Set of functions to update product statuses.*/\r\n   \r\n   //Accessible by - \r\n   //       - Producer\r\n    function produceProduct(string memory prodName, string memory prodDesc,\r\n                            uint prodPrice, uint prodQty, address producerAdd) public {\r\n        require(isProducer(), \"Not a producer.\");\r\n        products.push(Product({\r\n           productStatus: Status.PRODUCED,\r\n           currentStatusUser: producerAdd,\r\n           productId: productID,\r\n           productName: prodName,\r\n           productDesc: prodDesc,\r\n           productPrice: prodPrice,\r\n           productQuantity: prodQty,\r\n           producerAddress: producerAdd,\r\n           distributorAddress: address(0),\r\n           retailerAddresses: address(0),\r\n           consumerAddress: address(0)\r\n       })); \r\n\r\n       productID += 1;\r\n       emit Produced(productID);\r\n   }\r\n\r\n    //Accessible by -\r\n    //      - Producer\r\n    function markProductReadyForPickup(uint prodId) public {\r\n        require(isProducer(), \"Not a producer.\");\r\n        products[prodId].productStatus = Status.READY_FOR_PICKUP;\r\n        products[prodId].currentStatusUser = msg.sender;\r\n        emit ReadyForPickup(prodId);\r\n   }\r\n\r\n    //Accessible by -\r\n    //      - Distributor\r\n    function pickUpProduct(uint prodId) public {\r\n        require(isDistributor(), \"Not a distributor.\");\r\n        products[prodId].productStatus = Status.PICKED_UP;\r\n        products[prodId].currentStatusUser = msg.sender;\r\n        products[prodId].distributorAddress = msg.sender;\r\n        emit PickedUp(prodId);\r\n   }\r\n\r\n    //Accessible by -\r\n    //      - Retailer\r\n    //      - Distributor\r\n    function buyProduct(uint prodId) public payable {\r\n        require(isRetailer() || isDistributor(), \"Neither a retailer nor a distributor.\");\r\n        products[prodId].productStatus = Status.PAID;\r\n        products[prodId].currentStatusUser = msg.sender;\r\n        emit Paid(prodId);\r\n   }\r\n\r\n    //Accessible by -\r\n    //      - Distributor\r\n    function releaseProductShipment(uint prodId) public {\r\n        require(isDistributor(), \"Not a distributor.\");\r\n        products[prodId].productStatus = Status.SHIPMENT_RELEASED;\r\n        products[prodId].currentStatusUser = msg.sender;\r\n        emit ShipmentReleased(prodId);\r\n   } \r\n\r\n    //Accessible by -\r\n    //      - Retailer\r\n    function receiveProductShipment(uint prodId) public {\r\n        require(isRetailer(), \"Not a retailer.\");\r\n        products[prodId].productStatus = Status.RECEIVED_SHIPMENT;\r\n        products[prodId].currentStatusUser = msg.sender;\r\n        products[prodId].retailerAddresses = msg.sender;\r\n        emit ShipmentReceived(prodId);\r\n   }\r\n\r\n    //Accessible by -\r\n    //      - Retailer\r\n    function markProductReadyForSale(uint prodId) public {\r\n        require(isRetailer(), \"Not a retailer.\");\r\n        products[prodId].productStatus = Status.READY_FOR_SALE;\r\n        products[prodId].currentStatusUser = msg.sender;\r\n        emit ReadyForSale(prodId);\r\n   }\r\n\r\n   //Accessible by -\r\n    //      - Retailer\r\n    function sellProductToConsumer(uint prodId) public payable {\r\n        require(isRetailer(), \"Not a retailer.\");\r\n        products[prodId].productStatus = Status.SOLD;\r\n        products[prodId].currentStatusUser = msg.sender;\r\n        emit Sold(prodId);\r\n   }\r\n\r\n    /* Getters. */\r\n    \r\n    function getProductDetails(uint prodId) public view returns (Product memory) {\r\n       return products[prodId];\r\n    } \r\n\r\n    function getAllProductDetails() public view returns (Product[] memory) {\r\n       return products;\r\n    } \r\n}\r\n",
  "sourcePath": "C:\\Users\\sunrise\\Desktop\\Hackathons\\blockchain-scm\\contracts\\SupplyChainLifecycle.sol",
  "compiler": {
    "name": "solc",
    "version": "0.4.26+commit.4563c3fc.Emscripten.clang"
  },
  "schemaVersion": "3.4.7",
  "updatedAt": "2023-02-19T06:14:52.650Z",
  "devdoc": {
    "methods": {},
    "title": "SupplyChainLifecycle\r"
  },
  "userdoc": {
    "methods": {}
  }
}